{
  "contractName": "Lottery",
  "abi": [
    {
      "inputs": [
        {
          "internalType": "uint256",
          "name": "_genesisTimestamp",
          "type": "uint256"
        },
        {
          "internalType": "uint256",
          "name": "_amountPerBet",
          "type": "uint256"
        }
      ],
      "stateMutability": "nonpayable",
      "type": "constructor"
    },
    {
      "anonymous": false,
      "inputs": [
        {
          "indexed": false,
          "internalType": "uint256",
          "name": "week",
          "type": "uint256"
        },
        {
          "indexed": false,
          "internalType": "address",
          "name": "winner",
          "type": "address"
        },
        {
          "indexed": false,
          "internalType": "uint256",
          "name": "amount",
          "type": "uint256"
        }
      ],
      "name": "ClaimedPrize",
      "type": "event"
    },
    {
      "anonymous": false,
      "inputs": [
        {
          "indexed": false,
          "internalType": "uint256",
          "name": "amount",
          "type": "uint256"
        },
        {
          "indexed": false,
          "internalType": "uint256",
          "name": "nbPlayers",
          "type": "uint256"
        },
        {
          "indexed": false,
          "internalType": "address",
          "name": "lastPlayer",
          "type": "address"
        }
      ],
      "name": "UpdatedLottery",
      "type": "event"
    },
    {
      "anonymous": false,
      "inputs": [
        {
          "indexed": false,
          "internalType": "uint256",
          "name": "week",
          "type": "uint256"
        },
        {
          "indexed": false,
          "internalType": "address",
          "name": "winner",
          "type": "address"
        },
        {
          "indexed": false,
          "internalType": "uint256",
          "name": "amount",
          "type": "uint256"
        },
        {
          "indexed": false,
          "internalType": "address",
          "name": "picker",
          "type": "address"
        }
      ],
      "name": "WinnerPicked",
      "type": "event"
    },
    {
      "inputs": [],
      "name": "genesisTimestamp",
      "outputs": [
        {
          "internalType": "uint256",
          "name": "",
          "type": "uint256"
        }
      ],
      "stateMutability": "view",
      "type": "function",
      "constant": true
    },
    {
      "inputs": [
        {
          "internalType": "uint256",
          "name": "",
          "type": "uint256"
        },
        {
          "internalType": "uint256",
          "name": "",
          "type": "uint256"
        }
      ],
      "name": "lottery",
      "outputs": [
        {
          "internalType": "address",
          "name": "",
          "type": "address"
        }
      ],
      "stateMutability": "view",
      "type": "function",
      "constant": true
    },
    {
      "inputs": [],
      "name": "owner",
      "outputs": [
        {
          "internalType": "address",
          "name": "",
          "type": "address"
        }
      ],
      "stateMutability": "view",
      "type": "function",
      "constant": true
    },
    {
      "inputs": [],
      "name": "royaltyAmount",
      "outputs": [
        {
          "internalType": "uint256",
          "name": "",
          "type": "uint256"
        }
      ],
      "stateMutability": "view",
      "type": "function",
      "constant": true
    },
    {
      "inputs": [],
      "name": "royaltyClaimable",
      "outputs": [
        {
          "internalType": "uint256",
          "name": "",
          "type": "uint256"
        }
      ],
      "stateMutability": "view",
      "type": "function",
      "constant": true
    },
    {
      "inputs": [
        {
          "internalType": "uint256",
          "name": "",
          "type": "uint256"
        }
      ],
      "name": "weekData",
      "outputs": [
        {
          "internalType": "uint256",
          "name": "nbPlayers",
          "type": "uint256"
        },
        {
          "internalType": "uint256",
          "name": "amount",
          "type": "uint256"
        },
        {
          "internalType": "address",
          "name": "winner",
          "type": "address"
        },
        {
          "internalType": "bool",
          "name": "prizeClaimed",
          "type": "bool"
        },
        {
          "internalType": "address",
          "name": "picker",
          "type": "address"
        }
      ],
      "stateMutability": "view",
      "type": "function",
      "constant": true
    },
    {
      "stateMutability": "payable",
      "type": "receive",
      "payable": true
    },
    {
      "inputs": [],
      "name": "getWeek",
      "outputs": [
        {
          "internalType": "uint256",
          "name": "",
          "type": "uint256"
        }
      ],
      "stateMutability": "view",
      "type": "function",
      "constant": true
    },
    {
      "inputs": [],
      "name": "getJackpotAmount",
      "outputs": [
        {
          "internalType": "uint256",
          "name": "",
          "type": "uint256"
        }
      ],
      "stateMutability": "view",
      "type": "function",
      "constant": true
    },
    {
      "inputs": [],
      "name": "bet",
      "outputs": [],
      "stateMutability": "payable",
      "type": "function",
      "payable": true
    },
    {
      "inputs": [
        {
          "internalType": "uint256",
          "name": "_week",
          "type": "uint256"
        }
      ],
      "name": "pickWinner",
      "outputs": [],
      "stateMutability": "nonpayable",
      "type": "function"
    },
    {
      "inputs": [],
      "name": "sendGift",
      "outputs": [],
      "stateMutability": "payable",
      "type": "function",
      "payable": true
    },
    {
      "inputs": [
        {
          "internalType": "uint256",
          "name": "_week",
          "type": "uint256"
        }
      ],
      "name": "winnerIs",
      "outputs": [
        {
          "internalType": "address",
          "name": "",
          "type": "address"
        }
      ],
      "stateMutability": "view",
      "type": "function",
      "constant": true
    },
    {
      "inputs": [
        {
          "internalType": "uint256",
          "name": "_week",
          "type": "uint256"
        }
      ],
      "name": "claimPrize",
      "outputs": [],
      "stateMutability": "nonpayable",
      "type": "function"
    },
    {
      "inputs": [
        {
          "internalType": "uint256",
          "name": "_week",
          "type": "uint256"
        }
      ],
      "name": "claimUnclaimedPrize",
      "outputs": [],
      "stateMutability": "nonpayable",
      "type": "function"
    },
    {
      "inputs": [],
      "name": "claimRoyalty",
      "outputs": [],
      "stateMutability": "nonpayable",
      "type": "function"
    },
    {
      "inputs": [
        {
          "internalType": "address",
          "name": "_newOwner",
          "type": "address"
        }
      ],
      "name": "setOwner",
      "outputs": [],
      "stateMutability": "nonpayable",
      "type": "function"
    }
  ],
  "bytecode": "0x608060405262093a806006556276a7006007556102586008556050600955600a80556005600b556005600c553480156200003857600080fd5b5060405162002de938038062002de983398181016040528101906200005e9190620001b4565b6064600c54600b54600a546009546200007891906200022a565b6200008491906200022a565b6200009091906200022a565b14620000d3576040517f08c379a0000000000000000000000000000000000000000000000000000000008152600401620000ca90620002ec565b60405180910390fd5b60065460075410156200011d576040517f08c379a00000000000000000000000000000000000000000000000000000000081526004016200011490620003aa565b60405180910390fd5b8160028190555080600d8190555033600560006101000a81548173ffffffffffffffffffffffffffffffffffffffff021916908373ffffffffffffffffffffffffffffffffffffffff1602179055505050620003cc565b600080fd5b6000819050919050565b6200018e8162000179565b81146200019a57600080fd5b50565b600081519050620001ae8162000183565b92915050565b60008060408385031215620001ce57620001cd62000174565b5b6000620001de858286016200019d565b9250506020620001f1858286016200019d565b9150509250929050565b7f4e487b7100000000000000000000000000000000000000000000000000000000600052601160045260246000fd5b6000620002378262000179565b9150620002448362000179565b92508282019050808211156200025f576200025e620001fb565b5b92915050565b600082825260208201905092915050565b7f496e636f6e73697374656e742070657263656e74616765732c2073756d206f6660008201527f207065726365727461676573206d757374206265203130300000000000000000602082015250565b6000620002d460388362000265565b9150620002e18262000276565b604082019050919050565b600060208201905081810360008301526200030781620002c5565b9050919050565b7f54686520636c61696d61696e6720706572696f642073686f756c64206265206160008201527f74206c65617374206173206c6f6e6720617320746865206c6f7474657279206460208201527f75726174696f6e00000000000000000000000000000000000000000000000000604082015250565b60006200039260478362000265565b91506200039f826200030e565b606082019050919050565b60006020820190508181036000830152620003c58162000383565b9050919050565b612a0d80620003dc6000396000f3fe6080604052600436106100f75760003560e01c8063a5e029481161008a578063d709815411610059578063d7098154146102dd578063de93e42514610306578063ed8b655614610343578063f737d21d1461036e57610106565b8063a5e029481461021d578063c17a7e061461025e578063c8bf68a914610287578063cacf66ab146102b257610106565b806382ede1d6116100c657806382ede1d6146101a6578063874d6d81146101b05780638da5cb5b146101db578063900e92c41461020657610106565b806311610c251461010b57806313af403514610115578063610b1abd1461013e5780637c6e551d1461017b57610106565b3661010657610104610397565b005b600080fd5b610113610481565b005b34801561012157600080fd5b5061013c60048036038101906101379190611b25565b610734565b005b34801561014a57600080fd5b5061016560048036038101906101609190611b88565b610808565b6040516101729190611bd7565b60405180910390f35b34801561018757600080fd5b5061019061084a565b60405161019d9190611c01565b60405180910390f35b6101ae610397565b005b3480156101bc57600080fd5b506101c5610850565b6040516101d29190611c01565b60405180910390f35b3480156101e757600080fd5b506101f06108bc565b6040516101fd9190611bd7565b60405180910390f35b34801561021257600080fd5b5061021b6108e2565b005b34801561022957600080fd5b50610244600480360381019061023f9190611c1c565b610ab8565b604051610255959493929190611c64565b60405180910390f35b34801561026a57600080fd5b5061028560048036038101906102809190611c1c565b610b3b565b005b34801561029357600080fd5b5061029c61107d565b6040516102a99190611c01565b60405180910390f35b3480156102be57600080fd5b506102c7611083565b6040516102d49190611c01565b60405180910390f35b3480156102e957600080fd5b5061030460048036038101906102ff9190611c1c565b611089565b005b34801561031257600080fd5b5061032d60048036038101906103289190611c1c565b611377565b60405161033a9190611bd7565b60405180910390f35b34801561034f57600080fd5b506103586114fb565b6040516103659190611c01565b60405180910390f35b34801561037a57600080fd5b5061039560048036038101906103909190611c1c565b611524565b005b66038d7ea4c680003410156103e1576040517f08c379a00000000000000000000000000000000000000000000000000000000081526004016103d890611d3a565b60405180910390fd5b60006103eb610850565b90503460008083815260200190815260200160002060010160008282546104129190611d89565b925050819055507fe61645e9c15a302d1f79d0dcfcdf956bf4c54bd7667ab351216bb8b3dc743deb60008083815260200190815260200160002060010154600080848152602001908152602001600020600001543360405161047693929190611dbd565b60405180910390a150565b600560009054906101000a900473ffffffffffffffffffffffffffffffffffffffff1673ffffffffffffffffffffffffffffffffffffffff163373ffffffffffffffffffffffffffffffffffffffff1603610511576040517f08c379a000000000000000000000000000000000000000000000000000000000815260040161050890611e40565b60405180910390fd5b600d543414610555576040517f08c379a000000000000000000000000000000000000000000000000000000000815260040161054c90611ed2565b60405180910390fd5b600061055f610850565b90506064600954346105719190611ef2565b61057b9190611f63565b600080838152602001908152602001600020600101600082825461059f9190611d89565b925050819055506064600a54346105b69190611ef2565b6105c09190611f63565b6000806001846105d09190611d89565b815260200190815260200160002060010160008282546105f09190611d89565b925050819055506064600c54346106079190611ef2565b6106119190611f63565b600360008282546106229190611d89565b925050819055503360016000838152602001908152602001600020600080600085815260200190815260200160002060000154815260200190815260200160002060006101000a81548173ffffffffffffffffffffffffffffffffffffffff021916908373ffffffffffffffffffffffffffffffffffffffff16021790555060008082815260200190815260200160002060000160008154809291906106c790611f94565b91905055507fe61645e9c15a302d1f79d0dcfcdf956bf4c54bd7667ab351216bb8b3dc743deb60008083815260200190815260200160002060010154600080848152602001908152602001600020600001543360405161072993929190611dbd565b60405180910390a150565b600560009054906101000a900473ffffffffffffffffffffffffffffffffffffffff1673ffffffffffffffffffffffffffffffffffffffff163373ffffffffffffffffffffffffffffffffffffffff16146107c4576040517f08c379a00000000000000000000000000000000000000000000000000000000081526004016107bb9061204e565b60405180910390fd5b80600560006101000a81548173ffffffffffffffffffffffffffffffffffffffff021916908373ffffffffffffffffffffffffffffffffffffffff16021790555050565b60016020528160005260406000206020528060005260406000206000915091509054906101000a900473ffffffffffffffffffffffffffffffffffffffff1681565b60035481565b60008042905060025481101561089b576040517f08c379a0000000000000000000000000000000000000000000000000000000008152600401610892906120ba565b60405180910390fd5b600654600254826108ac91906120da565b6108b69190611f63565b91505090565b600560009054906101000a900473ffffffffffffffffffffffffffffffffffffffff1681565b600560009054906101000a900473ffffffffffffffffffffffffffffffffffffffff1673ffffffffffffffffffffffffffffffffffffffff163373ffffffffffffffffffffffffffffffffffffffff1614610972576040517f08c379a00000000000000000000000000000000000000000000000000000000081526004016109699061204e565b60405180910390fd5b600e60009054906101000a900460ff16156109c2576040517f08c379a00000000000000000000000000000000000000000000000000000000081526004016109b99061215a565b60405180910390fd5b6001600e60006101000a81548160ff021916908315150217905550600060045411610a22576040517f08c379a0000000000000000000000000000000000000000000000000000000008152600401610a19906121c6565b60405180910390fd5b600060045490506000600481905550600560009054906101000a900473ffffffffffffffffffffffffffffffffffffffff1673ffffffffffffffffffffffffffffffffffffffff166108fc829081150290604051600060405180830381858888f19350505050158015610a99573d6000803e3d6000fd5b50506000600e60006101000a81548160ff021916908315150217905550565b60006020528060005260406000206000915090508060000154908060010154908060020160009054906101000a900473ffffffffffffffffffffffffffffffffffffffff16908060020160149054906101000a900460ff16908060030160009054906101000a900473ffffffffffffffffffffffffffffffffffffffff16905085565b600560009054906101000a900473ffffffffffffffffffffffffffffffffffffffff1673ffffffffffffffffffffffffffffffffffffffff163373ffffffffffffffffffffffffffffffffffffffff1614610bcb576040517f08c379a0000000000000000000000000000000000000000000000000000000008152600401610bc29061204e565b60405180910390fd5b600e60009054906101000a900460ff1615610c1b576040517f08c379a0000000000000000000000000000000000000000000000000000000008152600401610c129061215a565b60405180910390fd5b6001600e60006101000a81548160ff0219169083151502179055506000151560008083815260200190815260200160002060020160149054906101000a900460ff16151514610c9f576040517f08c379a0000000000000000000000000000000000000000000000000000000008152600401610c9690612258565b60405180910390fd5b6000806000838152602001908152602001600020600001541115610f4a57600754600654600183610cd09190611d89565b610cda9190611ef2565b600254610ce79190611d89565b610cf19190611d89565b4211610d32576040517f08c379a0000000000000000000000000000000000000000000000000000000008152600401610d29906122ea565b60405180910390fd5b600073ffffffffffffffffffffffffffffffffffffffff1660008083815260200190815260200160002060020160009054906101000a900473ffffffffffffffffffffffffffffffffffffffff1673ffffffffffffffffffffffffffffffffffffffff1614610e4c57600160008083815260200190815260200160002060020160146101000a81548160ff021916908315150217905550600560009054906101000a900473ffffffffffffffffffffffffffffffffffffffff1673ffffffffffffffffffffffffffffffffffffffff166108fc600080848152602001908152602001600020600101549081150290604051600060405180830381858888f19350505050158015610e46573d6000803e3d6000fd5b50610f45565b60006064600b54600d5460008086815260200190815260200160002060000154610e769190611ef2565b610e809190611ef2565b610e8a9190611f63565b9050600160008084815260200190815260200160002060020160146101000a81548160ff021916908315150217905550600560009054906101000a900473ffffffffffffffffffffffffffffffffffffffff1673ffffffffffffffffffffffffffffffffffffffff166108fc8260008086815260200190815260200160002060010154610f179190611d89565b9081150290604051600060405180830381858888f19350505050158015610f42573d6000803e3d6000fd5b50505b61105f565b600654600182610f5a9190611d89565b610f649190611ef2565b600254610f719190611d89565b4211610fb2576040517f08c379a0000000000000000000000000000000000000000000000000000000008152600401610fa99061237c565b60405180910390fd5b600160008083815260200190815260200160002060020160146101000a81548160ff021916908315150217905550600560009054906101000a900473ffffffffffffffffffffffffffffffffffffffff1673ffffffffffffffffffffffffffffffffffffffff166108fc600080848152602001908152602001600020600101549081150290604051600060405180830381858888f1935050505015801561105d573d6000803e3d6000fd5b505b6000600e60006101000a81548160ff02191690831515021790555050565b60045481565b60025481565b8061109381611377565b73ffffffffffffffffffffffffffffffffffffffff163373ffffffffffffffffffffffffffffffffffffffff1614611100576040517f08c379a00000000000000000000000000000000000000000000000000000000081526004016110f7906123e8565b60405180910390fd5b6007546006546001836111139190611d89565b61111d9190611ef2565b60025461112a9190611d89565b6111349190611d89565b4210611175576040517f08c379a000000000000000000000000000000000000000000000000000000000815260040161116c9061247a565b60405180910390fd5b6000151560008083815260200190815260200160002060020160149054906101000a900460ff161515146111de576040517f08c379a00000000000000000000000000000000000000000000000000000000081526004016111d5906124e6565b60405180910390fd5b600e60009054906101000a900460ff161561122e576040517f08c379a00000000000000000000000000000000000000000000000000000000081526004016112259061215a565b60405180910390fd5b6001600e60006101000a81548160ff021916908315150217905550600160008084815260200190815260200160002060020160146101000a81548160ff0219169083151502179055503373ffffffffffffffffffffffffffffffffffffffff166108fc600080858152602001908152602001600020600101549081150290604051600060405180830381858888f193505050501580156112d2573d6000803e3d6000fd5b507fc218e8a26972351971bf71a0bbefcd5ea48c32fd402d9892d2d88bf26ac3f8528260008085815260200190815260200160002060020160009054906101000a900473ffffffffffffffffffffffffffffffffffffffff166000808681526020019081526020016000206001015460405161135093929190612506565b60405180910390a16000600e60006101000a81548160ff0219169083151502179055505050565b600081611382610850565b116113c2576040517f08c379a00000000000000000000000000000000000000000000000000000000081526004016113b9906125af565b60405180910390fd5b6000806000848152602001908152602001600020600001541161141a576040517f08c379a000000000000000000000000000000000000000000000000000000000815260040161141190612641565b60405180910390fd5b600073ffffffffffffffffffffffffffffffffffffffff1660008084815260200190815260200160002060020160009054906101000a900473ffffffffffffffffffffffffffffffffffffffff1673ffffffffffffffffffffffffffffffffffffffff16036114be576040517f08c379a00000000000000000000000000000000000000000000000000000000081526004016114b5906126f9565b60405180910390fd5b60008083815260200190815260200160002060020160009054906101000a900473ffffffffffffffffffffffffffffffffffffffff169050919050565b600080611506610850565b90506000808281526020019081526020016000206001015491505090565b600e60009054906101000a900460ff1615611574576040517f08c379a000000000000000000000000000000000000000000000000000000000815260040161156b9061215a565b60405180910390fd5b6001600e60006101000a81548160ff02191690831515021790555080611598610850565b116115d8576040517f08c379a00000000000000000000000000000000000000000000000000000000081526004016115cf9061278b565b60405180910390fd5b600073ffffffffffffffffffffffffffffffffffffffff1660008083815260200190815260200160002060020160009054906101000a900473ffffffffffffffffffffffffffffffffffffffff1673ffffffffffffffffffffffffffffffffffffffff161461167c576040517f08c379a00000000000000000000000000000000000000000000000000000000081526004016116739061281d565b60405180910390fd5b600080600083815260200190815260200160002060000154116116d4576040517f08c379a00000000000000000000000000000000000000000000000000000000081526004016116cb906128af565b60405180910390fd5b6008546006546001836116e79190611d89565b6116f19190611ef2565b6002546116fe9190611d89565b6117089190611d89565b4211611749576040517f08c379a000000000000000000000000000000000000000000000000000000000815260040161174090612941565b60405180910390fd5b60075460065460018361175c9190611d89565b6117669190611ef2565b6002546117739190611d89565b61177d9190611d89565b42106117be576040517f08c379a00000000000000000000000000000000000000000000000000000000081526004016117b59061247a565b60405180910390fd5b600080600083815260200190815260200160002060000154486117e19190612961565b905060016000838152602001908152602001600020600082815260200190815260200160002060009054906101000a900473ffffffffffffffffffffffffffffffffffffffff1660008084815260200190815260200160002060020160006101000a81548173ffffffffffffffffffffffffffffffffffffffff021916908373ffffffffffffffffffffffffffffffffffffffff1602179055506003546004600082825461188f9190611d89565b9250508190555060006003819055506000600560009054906101000a900473ffffffffffffffffffffffffffffffffffffffff1673ffffffffffffffffffffffffffffffffffffffff166108fc6004549081150290604051600060405180830381858888f193505050509050801561190a5760006004819055505b60006064600b5460008087815260200190815260200160002060000154600d546119349190611ef2565b61193e9190611ef2565b6119489190611f63565b90503360008086815260200190815260200160002060030160006101000a81548173ffffffffffffffffffffffffffffffffffffffff021916908373ffffffffffffffffffffffffffffffffffffffff1602179055503373ffffffffffffffffffffffffffffffffffffffff166108fc829081150290604051600060405180830381858888f193505050501580156119e4573d6000803e3d6000fd5b507fa51a92bffdd4f0ec28e795bf6a57c512028a6c8d44b5ee983cc2cd0446f79ed88460008087815260200190815260200160002060020160009054906101000a900473ffffffffffffffffffffffffffffffffffffffff166000808881526020019081526020016000206001015460008089815260200190815260200160002060030160009054906101000a900473ffffffffffffffffffffffffffffffffffffffff16604051611a999493929190612992565b60405180910390a15050506000600e60006101000a81548160ff02191690831515021790555050565b600080fd5b600073ffffffffffffffffffffffffffffffffffffffff82169050919050565b6000611af282611ac7565b9050919050565b611b0281611ae7565b8114611b0d57600080fd5b50565b600081359050611b1f81611af9565b92915050565b600060208284031215611b3b57611b3a611ac2565b5b6000611b4984828501611b10565b91505092915050565b6000819050919050565b611b6581611b52565b8114611b7057600080fd5b50565b600081359050611b8281611b5c565b92915050565b60008060408385031215611b9f57611b9e611ac2565b5b6000611bad85828601611b73565b9250506020611bbe85828601611b73565b9150509250929050565b611bd181611ae7565b82525050565b6000602082019050611bec6000830184611bc8565b92915050565b611bfb81611b52565b82525050565b6000602082019050611c166000830184611bf2565b92915050565b600060208284031215611c3257611c31611ac2565b5b6000611c4084828501611b73565b91505092915050565b60008115159050919050565b611c5e81611c49565b82525050565b600060a082019050611c796000830188611bf2565b611c866020830187611bf2565b611c936040830186611bc8565b611ca06060830185611c55565b611cad6080830184611bc8565b9695505050505050565b600082825260208201905092915050565b7f47696674206d7573742062652067726561746572207468616e20302e3030312060008201527f6574680000000000000000000000000000000000000000000000000000000000602082015250565b6000611d24602383611cb7565b9150611d2f82611cc8565b604082019050919050565b60006020820190508181036000830152611d5381611d17565b9050919050565b7f4e487b7100000000000000000000000000000000000000000000000000000000600052601160045260246000fd5b6000611d9482611b52565b9150611d9f83611b52565b9250828201905080821115611db757611db6611d5a565b5b92915050565b6000606082019050611dd26000830186611bf2565b611ddf6020830185611bf2565b611dec6040830184611bc8565b949350505050565b7f4f776e65722063616e2774206265740000000000000000000000000000000000600082015250565b6000611e2a600f83611cb7565b9150611e3582611df4565b602082019050919050565b60006020820190508181036000830152611e5981611e1d565b9050919050565b7f54686520626574206d75737420626520657175616c20746f205b616d6f756e7460008201527f5065724265745d00000000000000000000000000000000000000000000000000602082015250565b6000611ebc602783611cb7565b9150611ec782611e60565b604082019050919050565b60006020820190508181036000830152611eeb81611eaf565b9050919050565b6000611efd82611b52565b9150611f0883611b52565b9250828202611f1681611b52565b91508282048414831517611f2d57611f2c611d5a565b5b5092915050565b7f4e487b7100000000000000000000000000000000000000000000000000000000600052601260045260246000fd5b6000611f6e82611b52565b9150611f7983611b52565b925082611f8957611f88611f34565b5b828204905092915050565b6000611f9f82611b52565b91507fffffffffffffffffffffffffffffffffffffffffffffffffffffffffffffffff8203611fd157611fd0611d5a565b5b600182019050919050565b7f4f6e6c79206f776e65722063616e20706572666f726d2074686973206163746960008201527f6f6e000000000000000000000000000000000000000000000000000000000000602082015250565b6000612038602283611cb7565b915061204382611fdc565b604082019050919050565b600060208201905081810360008301526120678161202b565b9050919050565b7f546865204c6f7474657279206861736e27742073746172746564207965740000600082015250565b60006120a4601e83611cb7565b91506120af8261206e565b602082019050919050565b600060208201905081810360008301526120d381612097565b9050919050565b60006120e582611b52565b91506120f083611b52565b925082820390508181111561210857612107611d5a565b5b92915050565b7f4e6f207265656e7472656e637900000000000000000000000000000000000000600082015250565b6000612144600d83611cb7565b915061214f8261210e565b602082019050919050565b6000602082019050818103600083015261217381612137565b9050919050565b7f5468657265206973206e6f20726f79616c747900000000000000000000000000600082015250565b60006121b0601383611cb7565b91506121bb8261217a565b602082019050919050565b600060208201905081810360008301526121df816121a3565b9050919050565b7f546865207072697a6520686173206265656e20616c726561647920636c61696d60008201527f6564000000000000000000000000000000000000000000000000000000000000602082015250565b6000612242602283611cb7565b915061224d826121e6565b604082019050919050565b6000602082019050818103600083015261227181612235565b9050919050565b7f54686520636c61696d696e6720706572696f642069736e27742066696e69736860008201527f6564000000000000000000000000000000000000000000000000000000000000602082015250565b60006122d4602283611cb7565b91506122df82612278565b604082019050919050565b60006020820190508181036000830152612303816122c7565b9050919050565b7f546865206c6f7474657279206d75737420626520636c6f736564206265666f7260008201527f6520636c61696d696e6720616e20756e636c61696d6564207072697a65000000602082015250565b6000612366603d83611cb7565b91506123718261230a565b604082019050919050565b6000602082019050818103600083015261239581612359565b9050919050565b7f596f7520617265206e6f74207468652077696e6e657200000000000000000000600082015250565b60006123d2601683611cb7565b91506123dd8261239c565b602082019050919050565b60006020820190508181036000830152612401816123c5565b9050919050565b7f436c61696d696e6720706572696f6420666f722074686973207765656b20697360008201527f20636c6f73656400000000000000000000000000000000000000000000000000602082015250565b6000612464602783611cb7565b915061246f82612408565b604082019050919050565b6000602082019050818103600083015261249381612457565b9050919050565b7f596f7520616c726561647920636c61696d656420796f7572207072697a650000600082015250565b60006124d0601e83611cb7565b91506124db8261249a565b602082019050919050565b600060208201905081810360008301526124ff816124c3565b9050919050565b600060608201905061251b6000830186611bf2565b6125286020830185611bc8565b6125356040830184611bf2565b949350505050565b7f4c6f7474657279206f662074686973207765656b206973206e6f7420636c6f7360008201527f6564207965742c20706c6561736520747279206c617465720000000000000000602082015250565b6000612599603883611cb7565b91506125a48261253d565b604082019050919050565b600060208201905081810360008301526125c88161258c565b9050919050565b7f5468657265207761736e277420616e79207061727469636970616e742064757260008201527f696e672074686973207765656b00000000000000000000000000000000000000602082015250565b600061262b602d83611cb7565b9150612636826125cf565b604082019050919050565b6000602082019050818103600083015261265a8161261e565b9050919050565b7f5468652077696e6e657220666f722074686973207765656b20686173206e6f7460008201527f206265656e207069636b6564207965742c20706c656173652063616c6c20706960208201527f636b57696e6e6572282900000000000000000000000000000000000000000000604082015250565b60006126e3604a83611cb7565b91506126ee82612661565b606082019050919050565b60006020820190508181036000830152612712816126d6565b9050919050565b7f546865206c6f747465727920666f722074686973207765656b206973206e6f7460008201527f20636c6f73656420796574000000000000000000000000000000000000000000602082015250565b6000612775602b83611cb7565b915061278082612719565b604082019050919050565b600060208201905081810360008301526127a481612768565b9050919050565b7f57696e6e65722068617320616c7265616479206265656e207069636b6564206660008201527f6f722074686973207765656b0000000000000000000000000000000000000000602082015250565b6000612807602c83611cb7565b9150612812826127ab565b604082019050919050565b60006020820190508181036000830152612836816127fa565b9050919050565b7f5468657265207761736e277420616e79207061727469636970616e7420746f2060008201527f746865206c6f7474657279206f662074686973207765656b0000000000000000602082015250565b6000612899603883611cb7565b91506128a48261283d565b604082019050919050565b600060208201905081810360008301526128c88161288c565b9050919050565b7f5468652077616974696e672064656c617920666f72207069636b696e6720746860008201527f652077696e6e65722069736e27742066696e6973686564207965740000000000602082015250565b600061292b603b83611cb7565b9150612936826128cf565b604082019050919050565b6000602082019050818103600083015261295a8161291e565b9050919050565b600061296c82611b52565b915061297783611b52565b92508261298757612986611f34565b5b828206905092915050565b60006080820190506129a76000830187611bf2565b6129b46020830186611bc8565b6129c16040830185611bf2565b6129ce6060830184611bc8565b9594505050505056fea26469706673582212209d92a94a52b42524870930730406da96859abf04c3578a343ca34cc8bc94c11964736f6c63430008110033",
  "immutableReferences": {},
  "source": "// SPDX-License-Identifier: MIT\n// By Matoshi Sakamoto - matoshisama@proton.me\npragma solidity >=0.8.4 <=0.8.17;\n\ncontract Lottery {\n\n    event UpdatedLottery(uint amount, uint nbPlayers, address lastPlayer);\n    event WinnerPicked(uint week, address winner, uint amount, address picker);\n    event ClaimedPrize(uint week, address winner, uint amount);\n\n    struct WeekData {\n        uint nbPlayers;\n        uint amount;\n        address winner;\n        bool prizeClaimed;\n        address picker;\n    }\n\n    mapping(uint => WeekData) public weekData;\n    mapping(uint => mapping(uint => address)) public lottery;\n\n    uint public genesisTimestamp;\n    uint public royaltyAmount;\n    uint public royaltyClaimable;\n    address public owner;\n\n    uint lotteryDuration = 7 days;\n    uint claimingPeriod = 90 days;\n    uint pickWinnerDelay = 10 minutes;\n\n    uint winnerPct = 80;\n    uint jackpotBonusPct = 10;\n    uint pickerPct = 5;\n    uint royaltyPct = 5;\n    uint amountPerBet;\n    bool private reentrencyLock;\n\n    constructor(uint _genesisTimestamp, uint _amountPerBet) {\n        require(winnerPct + jackpotBonusPct + pickerPct + royaltyPct == 100, \"Inconsistent percentages, sum of percertages must be 100\");\n        require(claimingPeriod >= lotteryDuration, \"The claimaing period should be at least as long as the lottery duration\");\n        genesisTimestamp = _genesisTimestamp;\n        amountPerBet = _amountPerBet;\n        owner = msg.sender;\n    }\n\n    modifier onlyOwner() {\n        require(msg.sender == owner, \"Only owner can perform this action\");\n        _;\n    }\n\n    modifier onlyWinner(uint _week) {\n        require(msg.sender == winnerIs(_week), \"You are not the winner\");\n        require(block.timestamp < genesisTimestamp + (_week+1) * lotteryDuration + claimingPeriod, \"Claiming period for this week is closed\");\n        require(weekData[_week].prizeClaimed == false, \"You already claimed your prize\");\n        _;\n    }\n\n    modifier nonReentrant() {\n        require(!reentrencyLock, \"No reentrency\");\n        reentrencyLock = true;\n        _;\n        reentrencyLock = false;\n    }\n\n    function getWeek() public view returns(uint) {\n        uint today = block.timestamp;\n        require(today >= genesisTimestamp, \"The Lottery hasn't started yet\");\n        return (today - genesisTimestamp) / lotteryDuration;\n    }\n\n    function getJackpotAmount() public view returns(uint) {\n        uint week = getWeek();\n        return weekData[week].amount;\n    } \n\n    function bet() public payable {\n        // The owner can't make any bet\n        require(msg.sender != owner, \"Owner can't bet\");\n        require(msg.value == amountPerBet, \"The bet must be equal to [amountPerBet]\");\n        uint week = getWeek();\n        \n        weekData[week].amount += msg.value * winnerPct / 100;\n        weekData[week+1].amount += msg.value * jackpotBonusPct / 100;\n        royaltyAmount += msg.value * royaltyPct / 100;\n        lottery[week][weekData[week].nbPlayers] = msg.sender;\n        weekData[week].nbPlayers++;\n        emit UpdatedLottery(weekData[week].amount, weekData[week].nbPlayers, msg.sender);\n    }\n\n    function pickWinner(uint _week) public nonReentrant {\n        require(getWeek() > _week, \"The lottery for this week is not closed yet\");\n        require(weekData[_week].winner == address(0), \"Winner has already been picked for this week\");\n        require(weekData[_week].nbPlayers > 0, \"There wasn't any participant to the lottery of this week\");\n        require(block.timestamp > genesisTimestamp + (_week+1) * lotteryDuration + pickWinnerDelay, \"The waiting delay for picking the winner isn't finished yet\");\n        require(block.timestamp < genesisTimestamp + (_week+1) * lotteryDuration + claimingPeriod, \"Claiming period for this week is closed\");\n        uint winnerIndex =  block.basefee % weekData[_week].nbPlayers;\n        weekData[_week].winner = lottery[_week][winnerIndex];\n        royaltyClaimable += royaltyAmount;\n        royaltyAmount = 0;\n\n        // Sending royalties to owner\n        // Success is not required. Picker will get his reward even if sending royalties fails.\n        bool royaltySent = payable(owner).send(royaltyClaimable);\n        if (royaltySent) {\n            royaltyClaimable = 0;\n        }\n        \n        // Sending reward to the Picker\n        // This is required. If it fails, royalties are not sent.\n        uint pickerReward = (amountPerBet *  weekData[_week].nbPlayers * pickerPct) / 100;\n        weekData[_week].picker = msg.sender;\n        payable(msg.sender).transfer(pickerReward);\n        emit WinnerPicked(_week, weekData[_week].winner, weekData[_week].amount, weekData[_week].picker);\n    }\n\n    function sendGift() public payable {\n        require(msg.value >= 0.001 ether, \"Gift must be greater than 0.001 eth\");\n        uint week = getWeek();\n        weekData[week].amount += msg.value;\n        emit UpdatedLottery(weekData[week].amount, weekData[week].nbPlayers, msg.sender);\n    }\n    \n    function winnerIs(uint _week) public view returns(address) {\n        require(getWeek() > _week, \"Lottery of this week is not closed yet, please try later\");\n        require(weekData[_week].nbPlayers > 0, \"There wasn't any participant during this week\");\n        require(weekData[_week].winner != address(0), \"The winner for this week has not been picked yet, please call pickWinner()\");\n        return weekData[_week].winner;\n    }\n\n    function claimPrize(uint _week) public onlyWinner(_week) nonReentrant {\n        weekData[_week].prizeClaimed = true;\n        payable(msg.sender).transfer(weekData[_week].amount);\n        emit ClaimedPrize(_week, weekData[_week].winner, weekData[_week].amount);\n    }\n\n    function claimUnclaimedPrize(uint _week) public onlyOwner nonReentrant {\n        require(weekData[_week].prizeClaimed == false, \"The prize has been already claimed\");\n        // The owner can claim an unclaimed prize if the claiming period is finished\n        // or if there was 0 participant to the lottery and the lottery is closed\n        if (weekData[_week].nbPlayers > 0) {\n            require(block.timestamp > genesisTimestamp + (_week+1) * lotteryDuration + claimingPeriod,\n            \"The claiming period isn't finished\");\n            if (weekData[_week].winner != address(0)) {\n                weekData[_week].prizeClaimed = true;\n                payable(owner).transfer(weekData[_week].amount);\n            } else {\n                uint pickerReward = (weekData[_week].nbPlayers * amountPerBet * pickerPct) / 100;\n                weekData[_week].prizeClaimed = true;\n                payable(owner).transfer(weekData[_week].amount + pickerReward);\n            }\n        } else {\n            require(block.timestamp > genesisTimestamp + (_week+1) * lotteryDuration,\n            \"The lottery must be closed before claiming an unclaimed prize\");\n            weekData[_week].prizeClaimed = true;\n            payable(owner).transfer(weekData[_week].amount);          \n        }\n    }\n\n    function claimRoyalty() public onlyOwner nonReentrant {\n        require(royaltyClaimable > 0, \"There is no royalty\");\n        uint royaltyToWithdraw = royaltyClaimable;\n        royaltyClaimable = 0; \n        payable(owner).transfer(royaltyToWithdraw);\n    }\n\n    function setOwner(address _newOwner) public onlyOwner {\n        owner = _newOwner;\n    }\n\n    receive() external payable{\n        sendGift();\n    }\n\n}\n\n\n",
  "sourcePath": "/home/alex/Dapp/udemy/lottery/lottery_truffle5/truffle-files/contracts/Lottery.sol",
  "compiler": {
    "name": "solc",
    "version": "0.8.17+commit.8df45f5f.Emscripten.clang"
  },
  "schemaVersion": "3.4.11",
  "updatedAt": "2023-04-14T22:01:56.202Z",
  "networkType": "ethereum",
  "devdoc": {
    "kind": "dev",
    "methods": {},
    "version": 1
  },
  "userdoc": {
    "kind": "user",
    "methods": {},
    "version": 1
  }
}