{
  "contractName": "OwnerBlock",
  "abi": [
    {
      "inputs": [
        {
          "internalType": "address",
          "name": "_lotteryContractAddress",
          "type": "address"
        }
      ],
      "stateMutability": "nonpayable",
      "type": "constructor"
    },
    {
      "inputs": [],
      "name": "lotteryContract",
      "outputs": [
        {
          "internalType": "contract ILottery4",
          "name": "",
          "type": "address"
        }
      ],
      "stateMutability": "view",
      "type": "function"
    },
    {
      "stateMutability": "payable",
      "type": "receive"
    },
    {
      "inputs": [
        {
          "internalType": "address",
          "name": "_newOwner",
          "type": "address"
        }
      ],
      "name": "setOwner",
      "outputs": [],
      "stateMutability": "nonpayable",
      "type": "function"
    }
  ],
  "bytecode": "0x60a060405234801561001057600080fd5b506040516105433803806105438339818101604052810190610032919061010f565b8073ffffffffffffffffffffffffffffffffffffffff1660808173ffffffffffffffffffffffffffffffffffffffff1681525050336000806101000a81548173ffffffffffffffffffffffffffffffffffffffff021916908373ffffffffffffffffffffffffffffffffffffffff1602179055505061013c565b600080fd5b600073ffffffffffffffffffffffffffffffffffffffff82169050919050565b60006100dc826100b1565b9050919050565b6100ec816100d1565b81146100f757600080fd5b50565b600081519050610109816100e3565b92915050565b600060208284031215610125576101246100ac565b5b6000610133848285016100fa565b91505092915050565b6080516103e561015e6000396000818161012801526101b601526103e56000f3fe60806040526004361061002d5760003560e01c806313af403514610044578063b29c662a1461006d5761003f565b3661003f57600061003d57600080fd5b005b600080fd5b34801561005057600080fd5b5061006b6004803603810190610066919061023b565b610098565b005b34801561007957600080fd5b506100826101b4565b60405161008f91906102c7565b60405180910390f35b60008054906101000a900473ffffffffffffffffffffffffffffffffffffffff1673ffffffffffffffffffffffffffffffffffffffff163373ffffffffffffffffffffffffffffffffffffffff1614610126576040517f08c379a000000000000000000000000000000000000000000000000000000000815260040161011d90610365565b60405180910390fd5b7f000000000000000000000000000000000000000000000000000000000000000073ffffffffffffffffffffffffffffffffffffffff166313af4035826040518263ffffffff1660e01b815260040161017f9190610394565b600060405180830381600087803b15801561019957600080fd5b505af11580156101ad573d6000803e3d6000fd5b5050505050565b7f000000000000000000000000000000000000000000000000000000000000000081565b600080fd5b600073ffffffffffffffffffffffffffffffffffffffff82169050919050565b6000610208826101dd565b9050919050565b610218816101fd565b811461022357600080fd5b50565b6000813590506102358161020f565b92915050565b600060208284031215610251576102506101d8565b5b600061025f84828501610226565b91505092915050565b6000819050919050565b600061028d610288610283846101dd565b610268565b6101dd565b9050919050565b600061029f82610272565b9050919050565b60006102b182610294565b9050919050565b6102c1816102a6565b82525050565b60006020820190506102dc60008301846102b8565b92915050565b600082825260208201905092915050565b7f41747461636b204f6e6c79206f776e65722063616e20706572666f726d20746860008201527f697320616374696f6e0000000000000000000000000000000000000000000000602082015250565b600061034f6029836102e2565b915061035a826102f3565b604082019050919050565b6000602082019050818103600083015261037e81610342565b9050919050565b61038e816101fd565b82525050565b60006020820190506103a96000830184610385565b9291505056fea2646970667358221220891537337af7e6e93cd39d55d1007838c4d9e1ab01718bbe4162c05b5fec859464736f6c63430008110033",
  "immutableReferences": {
    "24": [
      {
        "length": 32,
        "start": 296
      },
      {
        "length": 32,
        "start": 438
      }
    ]
  },
  "source": "// SPDX-License-Identifier: MIT\npragma solidity ^0.8.0;\n\n// import \"@ganache/console.log/console.sol\";\n\n\ninterface ILottery4 {\n    function setOwner(address _newOwner) external;\n}\n\ncontract OwnerBlock {\n    modifier onlyOwner() {\n        require(msg.sender == owner, \"Attack Only owner can perform this action\");\n        _;\n    }\n  address owner;\n  ILottery4 public immutable lotteryContract;\n\n  constructor(address _lotteryContractAddress) {\n    lotteryContract = ILottery4(_lotteryContractAddress);\n    owner = msg.sender;\n  }\n\n  function setOwner(address _newOwner) external onlyOwner {\n    lotteryContract.setOwner(_newOwner);\n  }\n\n  receive() external payable {\n    require(false);\n  }\n}\n\n\n\n\n",
  "sourcePath": "/home/alex/Dapp/udemy/lottery/lottery_truffle5/truffle-files/contracts/OwnerBlock.sol",
  "compiler": {
    "name": "solc",
    "version": "0.8.17+commit.8df45f5f.Emscripten.clang"
  },
  "schemaVersion": "3.4.11",
  "updatedAt": "2023-04-14T21:56:34.792Z",
  "devdoc": {
    "kind": "dev",
    "methods": {},
    "version": 1
  },
  "userdoc": {
    "kind": "user",
    "methods": {},
    "version": 1
  }
}